{
    "contractName": "Fipi",
    "abi": [
        {
            "inputs": [],
            "stateMutability": "nonpayable",
            "type": "constructor"
        },
        {
            "anonymous": false,
            "inputs": [
                {
                    "indexed": true,
                    "internalType": "address",
                    "name": "owner",
                    "type": "address"
                },
                {
                    "indexed": true,
                    "internalType": "address",
                    "name": "spender",
                    "type": "address"
                },
                {
                    "indexed": false,
                    "internalType": "uint256",
                    "name": "value",
                    "type": "uint256"
                }
            ],
            "name": "Approval",
            "type": "event"
        },
        {
            "anonymous": false,
            "inputs": [
                {
                    "indexed": false,
                    "internalType": "address",
                    "name": "BurnWallet",
                    "type": "address"
                },
                {
                    "indexed": false,
                    "internalType": "uint256",
                    "name": "tokensBurned",
                    "type": "uint256"
                }
            ],
            "name": "Burn",
            "type": "event"
        },
        {
            "anonymous": false,
            "inputs": [
                {
                    "indexed": false,
                    "internalType": "address",
                    "name": "winner",
                    "type": "address"
                },
                {
                    "indexed": false,
                    "internalType": "uint256",
                    "name": "amount",
                    "type": "uint256"
                },
                {
                    "indexed": false,
                    "internalType": "uint256",
                    "name": "time",
                    "type": "uint256"
                }
            ],
            "name": "LotteryAward",
            "type": "event"
        },
        {
            "anonymous": false,
            "inputs": [
                {
                    "indexed": true,
                    "internalType": "address",
                    "name": "previousOwner",
                    "type": "address"
                },
                {
                    "indexed": true,
                    "internalType": "address",
                    "name": "newOwner",
                    "type": "address"
                }
            ],
            "name": "OwnershipTransferred",
            "type": "event"
        },
        {
            "anonymous": false,
            "inputs": [
                {
                    "indexed": false,
                    "internalType": "uint256",
                    "name": "tokensSwapped",
                    "type": "uint256"
                },
                {
                    "indexed": false,
                    "internalType": "uint256",
                    "name": "bnbReceived",
                    "type": "uint256"
                },
                {
                    "indexed": false,
                    "internalType": "uint256",
                    "name": "tokensIntoLiqudity",
                    "type": "uint256"
                }
            ],
            "name": "SwapAndLiquify",
            "type": "event"
        },
        {
            "anonymous": false,
            "inputs": [
                {
                    "indexed": true,
                    "internalType": "address",
                    "name": "from",
                    "type": "address"
                },
                {
                    "indexed": true,
                    "internalType": "address",
                    "name": "to",
                    "type": "address"
                },
                {
                    "indexed": false,
                    "internalType": "uint256",
                    "name": "value",
                    "type": "uint256"
                }
            ],
            "name": "Transfer",
            "type": "event"
        },
        {
            "inputs": [],
            "name": "_BurnWallet",
            "outputs": [
                {
                    "internalType": "address payable",
                    "name": "",
                    "type": "address"
                }
            ],
            "stateMutability": "view",
            "type": "function"
        },
        {
            "inputs": [],
            "name": "_LiquidityReciever",
            "outputs": [
                {
                    "internalType": "address payable",
                    "name": "",
                    "type": "address"
                }
            ],
            "stateMutability": "view",
            "type": "function"
        },
        {
            "inputs": [],
            "name": "_lastRoll",
            "outputs": [
                {
                    "internalType": "uint256",
                    "name": "",
                    "type": "uint256"
                }
            ],
            "stateMutability": "view",
            "type": "function"
        },
        {
            "inputs": [],
            "name": "_marketingAddress",
            "outputs": [
                {
                    "internalType": "address payable",
                    "name": "",
                    "type": "address"
                }
            ],
            "stateMutability": "view",
            "type": "function"
        },
        {
            "inputs": [],
            "name": "_previousWinTime",
            "outputs": [
                {
                    "internalType": "uint256",
                    "name": "",
                    "type": "uint256"
                }
            ],
            "stateMutability": "view",
            "type": "function"
        },
        {
            "inputs": [],
            "name": "_previousWinner",
            "outputs": [
                {
                    "internalType": "address",
                    "name": "",
                    "type": "address"
                }
            ],
            "stateMutability": "view",
            "type": "function"
        },
        {
            "inputs": [],
            "name": "_previousWonAmount",
            "outputs": [
                {
                    "internalType": "uint256",
                    "name": "",
                    "type": "uint256"
                }
            ],
            "stateMutability": "view",
            "type": "function"
        },
        {
            "inputs": [],
            "name": "_taxFee",
            "outputs": [
                {
                    "internalType": "uint256",
                    "name": "",
                    "type": "uint256"
                }
            ],
            "stateMutability": "view",
            "type": "function"
        },
        {
            "inputs": [],
            "name": "_whaleSellThreshold",
            "outputs": [
                {
                    "internalType": "uint256",
                    "name": "",
                    "type": "uint256"
                }
            ],
            "stateMutability": "view",
            "type": "function"
        },
        {
            "inputs": [
                {
                    "internalType": "address",
                    "name": "owner",
                    "type": "address"
                },
                {
                    "internalType": "address",
                    "name": "spender",
                    "type": "address"
                }
            ],
            "name": "allowance",
            "outputs": [
                {
                    "internalType": "uint256",
                    "name": "",
                    "type": "uint256"
                }
            ],
            "stateMutability": "view",
            "type": "function"
        },
        {
            "inputs": [
                {
                    "internalType": "address",
                    "name": "spender",
                    "type": "address"
                },
                {
                    "internalType": "uint256",
                    "name": "amount",
                    "type": "uint256"
                }
            ],
            "name": "approve",
            "outputs": [
                {
                    "internalType": "bool",
                    "name": "",
                    "type": "bool"
                }
            ],
            "stateMutability": "nonpayable",
            "type": "function"
        },
        {
            "inputs": [
                {
                    "internalType": "address",
                    "name": "account",
                    "type": "address"
                }
            ],
            "name": "balanceOf",
            "outputs": [
                {
                    "internalType": "uint256",
                    "name": "",
                    "type": "uint256"
                }
            ],
            "stateMutability": "view",
            "type": "function"
        },
        {
            "inputs": [],
            "name": "decimals",
            "outputs": [
                {
                    "internalType": "uint8",
                    "name": "",
                    "type": "uint8"
                }
            ],
            "stateMutability": "pure",
            "type": "function"
        },
        {
            "inputs": [
                {
                    "internalType": "address",
                    "name": "spender",
                    "type": "address"
                },
                {
                    "internalType": "uint256",
                    "name": "subtractedValue",
                    "type": "uint256"
                }
            ],
            "name": "decreaseAllowance",
            "outputs": [
                {
                    "internalType": "bool",
                    "name": "",
                    "type": "bool"
                }
            ],
            "stateMutability": "nonpayable",
            "type": "function"
        },
        {
            "inputs": [
                {
                    "internalType": "uint256",
                    "name": "tAmount",
                    "type": "uint256"
                }
            ],
            "name": "deliver",
            "outputs": [],
            "stateMutability": "nonpayable",
            "type": "function"
        },
        {
            "inputs": [
                {
                    "internalType": "address",
                    "name": "account",
                    "type": "address"
                }
            ],
            "name": "excludeFromFee",
            "outputs": [],
            "stateMutability": "nonpayable",
            "type": "function"
        },
        {
            "inputs": [
                {
                    "internalType": "address",
                    "name": "account",
                    "type": "address"
                }
            ],
            "name": "excludeFromReward",
            "outputs": [],
            "stateMutability": "nonpayable",
            "type": "function"
        },
        {
            "inputs": [],
            "name": "getBurnWallet",
            "outputs": [
                {
                    "internalType": "address",
                    "name": "",
                    "type": "address"
                }
            ],
            "stateMutability": "view",
            "type": "function"
        },
        {
            "inputs": [
                {
                    "internalType": "address",
                    "name": "account",
                    "type": "address"
                }
            ],
            "name": "includeInFee",
            "outputs": [],
            "stateMutability": "nonpayable",
            "type": "function"
        },
        {
            "inputs": [
                {
                    "internalType": "address",
                    "name": "account",
                    "type": "address"
                }
            ],
            "name": "includeInReward",
            "outputs": [],
            "stateMutability": "nonpayable",
            "type": "function"
        },
        {
            "inputs": [
                {
                    "internalType": "address",
                    "name": "spender",
                    "type": "address"
                },
                {
                    "internalType": "uint256",
                    "name": "addedValue",
                    "type": "uint256"
                }
            ],
            "name": "increaseAllowance",
            "outputs": [
                {
                    "internalType": "bool",
                    "name": "",
                    "type": "bool"
                }
            ],
            "stateMutability": "nonpayable",
            "type": "function"
        },
        {
            "inputs": [
                {
                    "internalType": "address",
                    "name": "account",
                    "type": "address"
                }
            ],
            "name": "isExcludedFromFee",
            "outputs": [
                {
                    "internalType": "bool",
                    "name": "",
                    "type": "bool"
                }
            ],
            "stateMutability": "view",
            "type": "function"
        },
        {
            "inputs": [
                {
                    "internalType": "address",
                    "name": "account",
                    "type": "address"
                }
            ],
            "name": "isExcludedFromReward",
            "outputs": [
                {
                    "internalType": "bool",
                    "name": "",
                    "type": "bool"
                }
            ],
            "stateMutability": "view",
            "type": "function"
        },
        {
            "inputs": [],
            "name": "name",
            "outputs": [
                {
                    "internalType": "string",
                    "name": "",
                    "type": "string"
                }
            ],
            "stateMutability": "pure",
            "type": "function"
        },
        {
            "inputs": [],
            "name": "numTokensSellToAddToLiquidity",
            "outputs": [
                {
                    "internalType": "uint256",
                    "name": "",
                    "type": "uint256"
                }
            ],
            "stateMutability": "view",
            "type": "function"
        },
        {
            "inputs": [],
            "name": "owner",
            "outputs": [
                {
                    "internalType": "address",
                    "name": "",
                    "type": "address"
                }
            ],
            "stateMutability": "view",
            "type": "function"
        },
        {
            "inputs": [],
            "name": "pancakePair",
            "outputs": [
                {
                    "internalType": "address",
                    "name": "",
                    "type": "address"
                }
            ],
            "stateMutability": "view",
            "type": "function"
        },
        {
            "inputs": [],
            "name": "pancakeRouter",
            "outputs": [
                {
                    "internalType": "contract IPancakeRouter02",
                    "name": "",
                    "type": "address"
                }
            ],
            "stateMutability": "view",
            "type": "function"
        },
        {
            "inputs": [
                {
                    "internalType": "uint256",
                    "name": "tAmount",
                    "type": "uint256"
                },
                {
                    "internalType": "bool",
                    "name": "deductTransferFee",
                    "type": "bool"
                }
            ],
            "name": "reflectionFromToken",
            "outputs": [
                {
                    "internalType": "uint256",
                    "name": "",
                    "type": "uint256"
                }
            ],
            "stateMutability": "view",
            "type": "function"
        },
        {
            "inputs": [],
            "name": "renounceOwnership",
            "outputs": [],
            "stateMutability": "nonpayable",
            "type": "function"
        },
        {
            "inputs": [
                {
                    "internalType": "uint256",
                    "name": "numTokens",
                    "type": "uint256"
                }
            ],
            "name": "setLPThreshold",
            "outputs": [],
            "stateMutability": "nonpayable",
            "type": "function"
        },
        {
            "inputs": [
                {
                    "internalType": "bool",
                    "name": "b",
                    "type": "bool"
                }
            ],
            "name": "setLiquidity",
            "outputs": [],
            "stateMutability": "nonpayable",
            "type": "function"
        },
        {
            "inputs": [
                {
                    "internalType": "address",
                    "name": "marketingAddress",
                    "type": "address"
                }
            ],
            "name": "setMarketingAddress",
            "outputs": [],
            "stateMutability": "nonpayable",
            "type": "function"
        },
        {
            "inputs": [
                {
                    "internalType": "bool",
                    "name": "_enabled",
                    "type": "bool"
                }
            ],
            "name": "setSwapAndLiquifyEnabled",
            "outputs": [],
            "stateMutability": "nonpayable",
            "type": "function"
        },
        {
            "inputs": [
                {
                    "internalType": "uint256",
                    "name": "amount",
                    "type": "uint256"
                }
            ],
            "name": "setWhaleSellThreshold",
            "outputs": [],
            "stateMutability": "nonpayable",
            "type": "function"
        },
        {
            "inputs": [],
            "name": "swapAndLiquifyEnabled",
            "outputs": [
                {
                    "internalType": "bool",
                    "name": "",
                    "type": "bool"
                }
            ],
            "stateMutability": "view",
            "type": "function"
        },
        {
            "inputs": [],
            "name": "symbol",
            "outputs": [
                {
                    "internalType": "string",
                    "name": "",
                    "type": "string"
                }
            ],
            "stateMutability": "pure",
            "type": "function"
        },
        {
            "inputs": [
                {
                    "internalType": "uint256",
                    "name": "rAmount",
                    "type": "uint256"
                }
            ],
            "name": "tokenFromReflection",
            "outputs": [
                {
                    "internalType": "uint256",
                    "name": "",
                    "type": "uint256"
                }
            ],
            "stateMutability": "view",
            "type": "function"
        },
        {
            "inputs": [],
            "name": "totalBurnFee",
            "outputs": [
                {
                    "internalType": "uint256",
                    "name": "",
                    "type": "uint256"
                }
            ],
            "stateMutability": "view",
            "type": "function"
        },
        {
            "inputs": [],
            "name": "totalFees",
            "outputs": [
                {
                    "internalType": "uint256",
                    "name": "",
                    "type": "uint256"
                }
            ],
            "stateMutability": "view",
            "type": "function"
        },
        {
            "inputs": [],
            "name": "totalSupply",
            "outputs": [
                {
                    "internalType": "uint256",
                    "name": "",
                    "type": "uint256"
                }
            ],
            "stateMutability": "view",
            "type": "function"
        },
        {
            "inputs": [
                {
                    "internalType": "address",
                    "name": "recipient",
                    "type": "address"
                },
                {
                    "internalType": "uint256",
                    "name": "amount",
                    "type": "uint256"
                }
            ],
            "name": "transfer",
            "outputs": [
                {
                    "internalType": "bool",
                    "name": "",
                    "type": "bool"
                }
            ],
            "stateMutability": "nonpayable",
            "type": "function"
        },
        {
            "inputs": [
                {
                    "internalType": "address",
                    "name": "sender",
                    "type": "address"
                },
                {
                    "internalType": "address",
                    "name": "recipient",
                    "type": "address"
                },
                {
                    "internalType": "uint256",
                    "name": "amount",
                    "type": "uint256"
                }
            ],
            "name": "transferFrom",
            "outputs": [
                {
                    "internalType": "bool",
                    "name": "",
                    "type": "bool"
                }
            ],
            "stateMutability": "nonpayable",
            "type": "function"
        },
        {
            "inputs": [
                {
                    "internalType": "address",
                    "name": "newOwner",
                    "type": "address"
                }
            ],
            "name": "transferOwnership",
            "outputs": [],
            "stateMutability": "nonpayable",
            "type": "function"
        },
        {
            "inputs": [],
            "name": "withDrawLeftoverBNB",
            "outputs": [],
            "stateMutability": "nonpayable",
            "type": "function"
        },
        {
            "stateMutability": "payable",
            "type": "receive"
        }
    ],
    "bytecode": "60c0604052661c7327917bffff196009556002600b556001600c55600d805461ff001916610100179055652d79883d2000600f55601180546001600160a01b031990811661dead908117909255601280549091169091179055655af3107a40006018553480156200006f57600080fd5b5060006200007c620003d0565b600080546001600160a01b0319166001600160a01b0383169081178255604051929350917f8be0079c531659141344cd1fd0a4f28419497f9722a3daafe3b4186f6b6457e0908290a35060095460016000620000d7620003d0565b6001600160a01b03168152602081019190915260400160002055620000fb620003d0565b601060006101000a8154816001600160a01b0302191690836001600160a01b0316021790555060007310ed43c718714eb63d5aa57b78b54704e256024e9050806001600160a01b031663c45a01556040518163ffffffff1660e01b815260040160206040518083038186803b1580156200017457600080fd5b505afa15801562000189573d6000803e3d6000fd5b505050506040513d6020811015620001a057600080fd5b5051604080516315ab88c960e31b815290516001600160a01b039283169263c9c653969230929186169163ad5c464891600480820192602092909190829003018186803b158015620001f157600080fd5b505afa15801562000206573d6000803e3d6000fd5b505050506040513d60208110156200021d57600080fd5b5051604080516001600160e01b031960e086901b1681526001600160a01b0393841660048201529290911660248301525160448083019260209291908290030181600087803b1580156200027057600080fd5b505af115801562000285573d6000803e3d6000fd5b505050506040513d60208110156200029c57600080fd5b50516001600160601b0319606091821b811660a0529082901b16608052600160046000620002c9620003d4565b6001600160a01b03908116825260208083019390935260409182016000908120805495151560ff1996871617905530815260048452828120805486166001908117909155601180548416835260059095529281208054909516831790945591546008805492830181559093527ff3f7a9fe364faab93b216da50a3214154f22a0a2b415b23a84c8169e8b636ee30180546001600160a01b0319169290911691909117905562000377620003d0565b6001600160a01b031660006001600160a01b03167fddf252ad1be2c89b69c2b068fc378daa952ba7f163c4a11628f55a4df523b3ef664a9b63844880006040518082815260200191505060405180910390a350620003e3565b3390565b6000546001600160a01b031690565b60805160601c60a05160601c612b44620004306000398061149b528061192752806119d45250806114bf52806124ea52806125a252806125c952806126b752806127225250612b446000f3fe6080604052600436106102765760003560e01c806371b4603d1161014f578063c21ebd07116100c1578063dd62ed3e1161007a578063dd62ed3e14610872578063e3b66adf146108ad578063ea2f0b37146108c2578063ee26da68146108f5578063f2fde38b1461091f578063f85772c7146109525761027d565b8063c21ebd0714610809578063c49b9a80146105f9578063ca2704e41461081e578063caac793414610833578063d12a768814610848578063daaf12351461085d5761027d565b806390c027f31161011357806390c027f31461072e57806395d89b4114610758578063a457c2d71461076d578063a7459b1a146107a6578063a9059cbb146107bb578063b8c9d25c146107f45761027d565b806371b4603d1461066d57806388f820201461069e5780638da5cb5b146106d15780638dc92fbe146106e6578063906e9dd0146106fb5761027d565b80633ba5fe2e116101e857806352390c02116101ac57806352390c021461057e5780635342acb4146105b15780635a53fdd3146105e457806364ad2bbf146105f957806370a0823114610625578063715018a6146106585761027d565b80633ba5fe2e146104c55780633bd5d173146104da578063437823ec146105045780634549b039146105375780634a74bb02146105695761027d565b80632d8381191161023a5780632d838119146103d8578063313ce56714610402578063324db30f1461042d5780633685d4191461044257806339509351146104775780633b124fe7146104b05761027d565b806306fdde0314610282578063095ea7b31461030c57806313114a9d1461035957806318160ddd1461038057806323b872dd146103955761027d565b3661027d57005b600080fd5b34801561028e57600080fd5b50610297610967565b6040805160208082528351818301528351919283929083019185019080838360005b838110156102d15781810151838201526020016102b9565b50505050905090810190601f1680156102fe5780820380516001836020036101000a031916815260200191505b509250505060405180910390f35b34801561031857600080fd5b506103456004803603604081101561032f57600080fd5b506001600160a01b03813516906020013561098b565b604080519115158252519081900360200190f35b34801561036557600080fd5b5061036e6109a9565b60408051918252519081900360200190f35b34801561038c57600080fd5b5061036e6109af565b3480156103a157600080fd5b50610345600480360360608110156103b857600080fd5b506001600160a01b038135811691602081013590911690604001356109ba565b3480156103e457600080fd5b5061036e600480360360208110156103fb57600080fd5b5035610a41565b34801561040e57600080fd5b50610417610aa3565b6040805160ff9092168252519081900360200190f35b34801561043957600080fd5b5061036e610aa8565b34801561044e57600080fd5b506104756004803603602081101561046557600080fd5b50356001600160a01b0316610aae565b005b34801561048357600080fd5b506103456004803603604081101561049a57600080fd5b506001600160a01b038135169060200135610c79565b3480156104bc57600080fd5b5061036e610cc7565b3480156104d157600080fd5b5061036e610ccd565b3480156104e657600080fd5b50610475600480360360208110156104fd57600080fd5b5035610cd3565b34801561051057600080fd5b506104756004803603602081101561052757600080fd5b50356001600160a01b0316610db5565b34801561054357600080fd5b5061036e6004803603604081101561055a57600080fd5b50803590602001351515610e3b565b34801561057557600080fd5b50610345610ee5565b34801561058a57600080fd5b50610475600480360360208110156105a157600080fd5b50356001600160a01b0316610ef3565b3480156105bd57600080fd5b50610345600480360360208110156105d457600080fd5b50356001600160a01b0316611092565b3480156105f057600080fd5b5061036e6110b0565b34801561060557600080fd5b506104756004803603602081101561061c57600080fd5b503515156110b6565b34801561063157600080fd5b5061036e6004803603602081101561064857600080fd5b50356001600160a01b0316611132565b34801561066457600080fd5b50610475611194565b34801561067957600080fd5b50610682611240565b604080516001600160a01b039092168252519081900360200190f35b3480156106aa57600080fd5b50610345600480360360208110156106c157600080fd5b50356001600160a01b031661124f565b3480156106dd57600080fd5b5061068261126d565b3480156106f257600080fd5b5061047561127c565b34801561070757600080fd5b506104756004803603602081101561071e57600080fd5b50356001600160a01b031661130e565b34801561073a57600080fd5b506104756004803603602081101561075157600080fd5b5035611392565b34801561076457600080fd5b506102976113f9565b34801561077957600080fd5b506103456004803603604081101561079057600080fd5b506001600160a01b038135169060200135611417565b3480156107b257600080fd5b5061036e61147f565b3480156107c757600080fd5b50610345600480360360408110156107de57600080fd5b506001600160a01b038135169060200135611485565b34801561080057600080fd5b50610682611499565b34801561081557600080fd5b506106826114bd565b34801561082a57600080fd5b506106826114e1565b34801561083f57600080fd5b506106826114f0565b34801561085457600080fd5b5061036e6114ff565b34801561086957600080fd5b5061036e611505565b34801561087e57600080fd5b5061036e6004803603604081101561089557600080fd5b506001600160a01b038135811691602001351661150b565b3480156108b957600080fd5b50610682611536565b3480156108ce57600080fd5b50610475600480360360208110156108e557600080fd5b50356001600160a01b0316611545565b34801561090157600080fd5b506104756004803603602081101561091857600080fd5b50356115c8565b34801561092b57600080fd5b506104756004803603602081101561094257600080fd5b50356001600160a01b031661162f565b34801561095e57600080fd5b50610682611731565b60408051808201909152600a8152692334a834902a37b5b2b760b11b602082015290565b600061099f610998611740565b8484611744565b5060015b92915050565b600a5490565b664a9b638448800090565b60006109c7848484611830565b610a37846109d3611740565b610a32856040518060600160405280602881526020016129d2602891396001600160a01b038a16600090815260036020526040812090610a11611740565b6001600160a01b031681526020810191909152604001600020549190611b57565b611744565b5060019392505050565b6000600954821115610a845760405162461bcd60e51b815260040180806020018281038252602a81526020018061293f602a913960400191505060405180910390fd5b6000610a8e611bee565b9050610a9a8382611c11565b9150505b919050565b600990565b600e5490565b610ab6611740565b6001600160a01b0316610ac761126d565b6001600160a01b031614610b10576040805162461bcd60e51b815260206004820181905260248201526000805160206129fa833981519152604482015290519081900360640190fd5b6001600160a01b03811660009081526005602052604090205460ff16610b7d576040805162461bcd60e51b815260206004820152601b60248201527f4163636f756e7420697320616c7265616479206578636c756465640000000000604482015290519081900360640190fd5b60005b600854811015610c7557816001600160a01b031660088281548110610ba157fe5b6000918252602090912001546001600160a01b03161415610c6d57600880546000198101908110610bce57fe5b600091825260209091200154600880546001600160a01b039092169183908110610bf457fe5b600091825260208083209190910180546001600160a01b0319166001600160a01b039485161790559184168152600282526040808220829055600590925220805460ff191690556008805480610c4657fe5b600082815260209020810160001990810180546001600160a01b0319169055019055610c75565b600101610b80565b5050565b600061099f610c86611740565b84610a328560036000610c97611740565b6001600160a01b03908116825260208083019390935260409182016000908120918c168152925290205490611c5a565b600b5481565b60155481565b6000610cdd611740565b6001600160a01b03811660009081526005602052604090205490915060ff1615610d385760405162461bcd60e51b815260040180806020018281038252602c815260200180612a8c602c913960400191505060405180910390fd5b6000610d42611bee565b90506000610d508483611cb4565b6001600160a01b038416600090815260016020526040902054909150610d769082611d0d565b6001600160a01b038416600090815260016020526040902055600954610d9c9082611d0d565b600955600a54610dac9085611c5a565b600a5550505050565b610dbd611740565b6001600160a01b0316610dce61126d565b6001600160a01b031614610e17576040805162461bcd60e51b815260206004820181905260248201526000805160206129fa833981519152604482015290519081900360640190fd5b6001600160a01b03166000908152600460205260409020805460ff19166001179055565b6000664a9b6384488000831115610e99576040805162461bcd60e51b815260206004820152601f60248201527f416d6f756e74206d757374206265206c657373207468616e20737570706c7900604482015290519081900360640190fd5b6000610ea3611bee565b905082610ec0576000610eb68583611cb4565b92506109a3915050565b6000610ecb85611d4f565b5090506000610eda8284611cb4565b93506109a392505050565b600d54610100900460ff1681565b610efb611740565b6001600160a01b0316610f0c61126d565b6001600160a01b031614610f55576040805162461bcd60e51b815260206004820181905260248201526000805160206129fa833981519152604482015290519081900360640190fd5b6001600160a01b03811660009081526005602052604090205460ff1615610fc3576040805162461bcd60e51b815260206004820152601b60248201527f4163636f756e7420697320616c7265616479206578636c756465640000000000604482015290519081900360640190fd5b6008546103e8111561108f576001600160a01b03811660009081526001602052604090205415611029576001600160a01b03811660009081526001602052604090205461100f90610a41565b6001600160a01b0382166000908152600260205260409020555b6001600160a01b0381166000818152600560205260408120805460ff191660019081179091556008805491820181559091527ff3f7a9fe364faab93b216da50a3214154f22a0a2b415b23a84c8169e8b636ee30180546001600160a01b03191690911790555b50565b6001600160a01b031660009081526004602052604090205460ff1690565b60165481565b6110be611740565b6001600160a01b03166110cf61126d565b6001600160a01b031614611118576040805162461bcd60e51b815260206004820181905260248201526000805160206129fa833981519152604482015290519081900360640190fd5b600d80549115156101000261ff0019909216919091179055565b6001600160a01b03811660009081526005602052604081205460ff161561117257506001600160a01b038116600090815260026020526040902054610a9e565b6001600160a01b0382166000908152600160205260409020546109a390610a41565b61119c611740565b6001600160a01b03166111ad61126d565b6001600160a01b0316146111f6576040805162461bcd60e51b815260206004820181905260248201526000805160206129fa833981519152604482015290519081900360640190fd5b600080546040516001600160a01b03909116907f8be0079c531659141344cd1fd0a4f28419497f9722a3daafe3b4186f6b6457e0908390a3600080546001600160a01b0319169055565b6011546001600160a01b031690565b6001600160a01b031660009081526005602052604090205460ff1690565b6000546001600160a01b031690565b6010546001600160a01b0316611290611740565b6001600160a01b0316146112d55760405162461bcd60e51b8152600401808060200182810382526032815260200180612ab86032913960400191505060405180910390fd5b6010546040516001600160a01b03909116904780156108fc02916000818181858888f1935050505015801561108f573d6000803e3d6000fd5b611316611740565b6001600160a01b031661132761126d565b6001600160a01b031614611370576040805162461bcd60e51b815260206004820181905260248201526000805160206129fa833981519152604482015290519081900360640190fd5b601280546001600160a01b0319166001600160a01b0392909216919091179055565b61139a611740565b6001600160a01b03166113ab61126d565b6001600160a01b0316146113f4576040805162461bcd60e51b815260206004820181905260248201526000805160206129fa833981519152604482015290519081900360640190fd5b600f55565b6040805180820190915260048152634669506960e01b602082015290565b600061099f611424611740565b84610a3285604051806060016040528060258152602001612aea602591396003600061144e611740565b6001600160a01b03908116825260208083019390935260409182016000908120918d16815292529020549190611b57565b60145481565b600061099f611492611740565b8484611830565b7f000000000000000000000000000000000000000000000000000000000000000081565b7f000000000000000000000000000000000000000000000000000000000000000081565b6011546001600160a01b031681565b6012546001600160a01b031681565b600f5481565b60185481565b6001600160a01b03918216600090815260036020908152604080832093909416825291909152205490565b6010546001600160a01b031681565b61154d611740565b6001600160a01b031661155e61126d565b6001600160a01b0316146115a7576040805162461bcd60e51b815260206004820181905260248201526000805160206129fa833981519152604482015290519081900360640190fd5b6001600160a01b03166000908152600460205260409020805460ff19169055565b6115d0611740565b6001600160a01b03166115e161126d565b6001600160a01b03161461162a576040805162461bcd60e51b815260206004820181905260248201526000805160206129fa833981519152604482015290519081900360640190fd5b601855565b611637611740565b6001600160a01b031661164861126d565b6001600160a01b031614611691576040805162461bcd60e51b815260206004820181905260248201526000805160206129fa833981519152604482015290519081900360640190fd5b6001600160a01b0381166116d65760405162461bcd60e51b81526004018080602001828103825260268152602001806129696026913960400191505060405180910390fd5b600080546040516001600160a01b03808516939216917f8be0079c531659141344cd1fd0a4f28419497f9722a3daafe3b4186f6b6457e091a3600080546001600160a01b0319166001600160a01b0392909216919091179055565b6013546001600160a01b031681565b3390565b6001600160a01b0383166117895760405162461bcd60e51b8152600401808060200182810382526024815260200180612a686024913960400191505060405180910390fd5b6001600160a01b0382166117ce5760405162461bcd60e51b815260040180806020018281038252602281526020018061298f6022913960400191505060405180910390fd5b6001600160a01b03808416600081815260036020908152604080832094871680845294825291829020859055815185815291517f8c5be1e5ebec7d5bd14f71427d1e84f3dd0314c0f7b2291e5b200ac8c7c3b9259281900390910190a3505050565b6001600160a01b0383166118755760405162461bcd60e51b8152600401808060200182810382526025815260200180612a436025913960400191505060405180910390fd5b6001600160a01b0382166118ba5760405162461bcd60e51b815260040180806020018281038252602381526020018061291c6023913960400191505060405180910390fd5b600081116118f95760405162461bcd60e51b8152600401808060200182810382526029815260200180612a1a6029913960400191505060405180910390fd5b600061190430611132565b600f549091508110801590819061191e5750600d5460ff16155b801561195c57507f00000000000000000000000000000000000000000000000000000000000000006001600160a01b0316856001600160a01b031614155b801561196f5750600d54610100900460ff165b1561197f5761197f600f54611d9f565b6001600c556001600160a01b03851660009081526004602052604090205460ff16806119c357506001600160a01b03841660009081526004602052604090205460ff165b156119d2576000600c55611b40565b7f00000000000000000000000000000000000000000000000000000000000000006001600160a01b0316846001600160a01b03161415611b40576001600160a01b038516600090815260076020526040812054611a30904290611d0d565b6001600160a01b03871660009081526006602052604081205491925090611a579086611c5a565b9050600082118015611a6b57506201518082105b8015611a8e57506001600160a01b03871660009081526007602052604090205415155b15611ac357601854811115611aa3576002600c555b6001600160a01b0387166000908152600660205260409020819055611b3d565b6001600160a01b038716600090815260076020526040902054158015611aea575060185481115b15611b14576002600c556001600160a01b0387166000908152600660205260409020819055611b3d565b6001600160a01b0387166000908152600760209081526040808320429055600690915290208590555b50505b611b4b858585611e95565b50506001600c55505050565b60008184841115611be65760405162461bcd60e51b81526004018080602001828103825283818151815260200191508051906020019080838360005b83811015611bab578181015183820152602001611b93565b50505050905090810190601f168015611bd85780820380516001836020036101000a031916815260200191505b509250505060405180910390fd5b505050900390565b6000806000611bfb6122be565b9092509050611c0a8282611c11565b9250505090565b6000611c5383836040518060400160405280601a81526020017f536166654d6174683a206469766973696f6e206279207a65726f000000000000815250612435565b9392505050565b600082820183811015611c53576040805162461bcd60e51b815260206004820152601b60248201527f536166654d6174683a206164646974696f6e206f766572666c6f770000000000604482015290519081900360640190fd5b600082611cc3575060006109a3565b82820282848281611cd057fe5b0414611c535760405162461bcd60e51b81526004018080602001828103825260218152602001806129b16021913960400191505060405180910390fd5b6000611c5383836040518060400160405280601e81526020017f536166654d6174683a207375627472616374696f6e206f766572666c6f770000815250611b57565b6000806000611d786064611d72600c54600b540287611cb490919063ffffffff16565b90611c11565b90506000611d9482611d8e818181818b82611d0d565b90611d0d565b935090915050915091565b600d805460ff191660011790556000611db9826004611c11565b90506000611dc78383611d0d565b905047611dd38261249a565b6000611ddf4783611d0d565b90506000611dee826003611c11565b9050611dfa85826126b1565b6000611e068383611d0d565b6012546040519192506001600160a01b03169082156108fc029083906000818181858888f19350505050158015611e41573d6000803e3d6000fd5b50604080518681526020810185905280820188905290517f17bbfb9a6069321b6ded73bd96327c9e6b7212a5cd51ff219cd61370acafb5619181900360600190a15050600d805460ff191690555050505050565b600080611ea183611d4f565b915091506000611eaf611bee565b90506000611ebd8583611cb4565b90506000611ecb8584611cb4565b90506000611ed98585611cb4565b6001600160a01b038a1660009081526005602052604090205490915060ff168015611f1d57506001600160a01b03881660009081526005602052604090205460ff16155b15611fc1576001600160a01b038916600090815260026020526040902054611f459088611d0d565b6001600160a01b038a16600090815260026020908152604080832093909355600190522054611f749084611d0d565b6001600160a01b03808b1660009081526001602052604080822093909355908a1681522054611fa39083611c5a565b6001600160a01b0389166000908152600160205260409020556121fc565b6001600160a01b03891660009081526005602052604090205460ff1615801561200257506001600160a01b03881660009081526005602052604090205460ff165b1561208f576001600160a01b03891660009081526001602052604090205461202a9084611d0d565b6001600160a01b03808b16600090815260016020908152604080832094909455918b168152600290915220546120609087611c5a565b6001600160a01b038916600090815260026020908152604080832093909355600190522054611fa39083611c5a565b6001600160a01b03891660009081526005602052604090205460ff161580156120d157506001600160a01b03881660009081526005602052604090205460ff16155b156120f9576001600160a01b038916600090815260016020526040902054611f749084611d0d565b6001600160a01b03891660009081526005602052604090205460ff16801561213957506001600160a01b03881660009081526005602052604090205460ff165b15612190576001600160a01b0389166000908152600260205260409020546121619088611d0d565b6001600160a01b038a1660009081526002602090815260408083209390935560019052205461202a9084611d0d565b6001600160a01b0389166000908152600160205260409020546121b39084611d0d565b6001600160a01b03808b1660009081526001602052604080822093909355908a16815220546121e29083611c5a565b6001600160a01b0389166000908152600160205260409020555b84156122685761220e8560020261279e565b61221785612827565b61222181866128f7565b6011546040805187815290516001600160a01b03928316928c16917fddf252ad1be2c89b69c2b068fc378daa952ba7f163c4a11628f55a4df523b3ef919081900360200190a35b876001600160a01b0316896001600160a01b03167fddf252ad1be2c89b69c2b068fc378daa952ba7f163c4a11628f55a4df523b3ef886040518082815260200191505060405180910390a3505050505050505050565b6009546000908190664a9b6384488000825b6008548110156123f9578260016000600884815481106122ec57fe5b60009182526020808320909101546001600160a01b031683528201929092526040019020541180612351575081600260006008848154811061232a57fe5b60009182526020808320909101546001600160a01b03168352820192909252604001902054115b1561236d57600954664a9b638448800094509450505050612431565b6123ad600160006008848154811061238157fe5b60009182526020808320909101546001600160a01b031683528201929092526040019020548490611d0d565b92506123ef60026000600884815481106123c357fe5b60009182526020808320909101546001600160a01b031683528201929092526040019020548390611d0d565b91506001016122d0565b5060095461240e90664a9b6384488000611c11565b82101561242b57600954664a9b6384488000935093505050612431565b90925090505b9091565b600081836124845760405162461bcd60e51b8152602060048201818152835160248401528351909283926044909101919085019080838360008315611bab578181015183820152602001611b93565b50600083858161249057fe5b0495945050505050565b604080516002808252606080830184529260208301908036833701905050905030816000815181106124c857fe5b60200260200101906001600160a01b031690816001600160a01b0316815250507f00000000000000000000000000000000000000000000000000000000000000006001600160a01b031663ad5c46486040518163ffffffff1660e01b815260040160206040518083038186803b15801561254157600080fd5b505afa158015612555573d6000803e3d6000fd5b505050506040513d602081101561256b57600080fd5b505181518290600190811061257c57fe5b60200260200101906001600160a01b031690816001600160a01b0316815250506125c7307f000000000000000000000000000000000000000000000000000000000000000084611744565b7f00000000000000000000000000000000000000000000000000000000000000006001600160a01b031663791ac9478360008430426040518663ffffffff1660e01b81526004018086815260200185815260200180602001846001600160a01b03168152602001838152602001828103825285818151815260200191508051906020019060200280838360005b8381101561266c578181015183820152602001612654565b505050509050019650505050505050600060405180830381600087803b15801561269557600080fd5b505af11580156126a9573d6000803e3d6000fd5b505050505050565b6126dc307f000000000000000000000000000000000000000000000000000000000000000084611744565b6010546040805163f305d71960e01b81523060048201526024810185905260006044820181905260648201526001600160a01b0392831660848201524260a482015290517f00000000000000000000000000000000000000000000000000000000000000009092169163f305d71991849160c480830192606092919082900301818588803b15801561276d57600080fd5b505af1158015612781573d6000803e3d6000fd5b50505050506040513d606081101561279857600080fd5b50505050565b60006127a8611bee565b905060006127b68383611cb4565b306000908152600160205260409020549091506127d39082611c5a565b3060009081526001602090815260408083209390935560059052205460ff161561282257306000908152600260205260409020546128119084611c5a565b306000908152600260205260409020555b505050565b6000612831611bee565b9050600061283f8383611cb4565b6011546001600160a01b03166000908152600160205260409020549091506128679082611c5a565b601180546001600160a01b03908116600090815260016020908152604080832095909555925490911681526005909152205460ff16156128e2576011546001600160a01b03166000908152600260205260409020546128c69084611c5a565b6011546001600160a01b03166000908152600260205260409020555b600e546128ef9084611c5a565b600e55505050565b6009546129049083611d0d565b600955600a546129149082611c5a565b600a55505056fe45524332303a207472616e7366657220746f20746865207a65726f2061646472657373416d6f756e74206d757374206265206c657373207468616e20746f74616c207265666c656374696f6e734f776e61626c653a206e6577206f776e657220697320746865207a65726f206164647265737345524332303a20617070726f766520746f20746865207a65726f2061646472657373536166654d6174683a206d756c7469706c69636174696f6e206f766572666c6f7745524332303a207472616e7366657220616d6f756e74206578636565647320616c6c6f77616e63654f776e61626c653a2063616c6c6572206973206e6f7420746865206f776e65725472616e7366657220616d6f756e74206d7573742062652067726561746572207468616e207a65726f45524332303a207472616e736665722066726f6d20746865207a65726f206164647265737345524332303a20617070726f76652066726f6d20746865207a65726f20616464726573734578636c75646564206164647265737365732063616e6e6f742063616c6c20746869732066756e6374696f6e4f6e6c7920746865206c69717569646974792072656369657665722063616e2075736520746869732066756e6374696f6e2145524332303a2064656372656173656420616c6c6f77616e63652062656c6f77207a65726fa26469706673582212204f16e5005851a294ce40a4acbfc9bfd73e572989c12f7ac0daa11b253e4ae4b964736f6c634300060c0033",
    "sourcePath": "c:/Users/Kacpu/OneDrive/Desktop/DCAx/src/dcax.sol",
    "compiler": {
        "name": "solc",
        "version": "0.6.12+commit.27d51765"
    },
    "functionHashes": {
        "_BurnWallet()": "ca2704e4",
        "_LiquidityReciever()": "e3b66adf",
        "_lastRoll()": "5a53fdd3",
        "_marketingAddress()": "caac7934",
        "_previousWinTime()": "3ba5fe2e",
        "_previousWinner()": "f85772c7",
        "_previousWonAmount()": "a7459b1a",
        "_taxFee()": "3b124fe7",
        "_whaleSellThreshold()": "daaf1235",
        "allowance(address,address)": "dd62ed3e",
        "approve(address,uint256)": "095ea7b3",
        "balanceOf(address)": "70a08231",
        "decimals()": "313ce567",
        "decreaseAllowance(address,uint256)": "a457c2d7",
        "deliver(uint256)": "3bd5d173",
        "excludeFromFee(address)": "437823ec",
        "excludeFromReward(address)": "52390c02",
        "getBurnWallet()": "71b4603d",
        "includeInFee(address)": "ea2f0b37",
        "includeInReward(address)": "3685d419",
        "increaseAllowance(address,uint256)": "39509351",
        "isExcludedFromFee(address)": "5342acb4",
        "isExcludedFromReward(address)": "88f82020",
        "name()": "06fdde03",
        "numTokensSellToAddToLiquidity()": "d12a7688",
        "owner()": "8da5cb5b",
        "pancakePair()": "b8c9d25c",
        "pancakeRouter()": "c21ebd07",
        "reflectionFromToken(uint256,bool)": "4549b039",
        "renounceOwnership()": "715018a6",
        "setLPThreshold(uint256)": "90c027f3",
        "setLiquidity(bool)": "64ad2bbf",
        "setMarketingAddress(address)": "906e9dd0",
        "setSwapAndLiquifyEnabled(bool)": "c49b9a80",
        "setWhaleSellThreshold(uint256)": "ee26da68",
        "swapAndLiquifyEnabled()": "4a74bb02",
        "symbol()": "95d89b41",
        "tokenFromReflection(uint256)": "2d838119",
        "totalBurnFee()": "324db30f",
        "totalFees()": "13114a9d",
        "totalSupply()": "18160ddd",
        "transfer(address,uint256)": "a9059cbb",
        "transferFrom(address,address,uint256)": "23b872dd",
        "transferOwnership(address)": "f2fde38b",
        "withDrawLeftoverBNB()": "8dc92fbe"
    },
    "gasEstimates": {
        "creation": {
            "codeDepositCost": "2215200",
            "executionCost": "infinite",
            "totalCost": "infinite"
        },
        "external": {
            "_BurnWallet()": "1126",
            "_LiquidityReciever()": "1103",
            "_lastRoll()": "1087",
            "_marketingAddress()": "1148",
            "_previousWinTime()": "1044",
            "_previousWinner()": "1191",
            "_previousWonAmount()": "1109",
            "_taxFee()": "1154",
            "_whaleSellThreshold()": "1153",
            "allowance(address,address)": "1294",
            "approve(address,uint256)": "infinite",
            "balanceOf(address)": "infinite",
            "decimals()": "275",
            "decreaseAllowance(address,uint256)": "infinite",
            "deliver(uint256)": "infinite",
            "excludeFromFee(address)": "infinite",
            "excludeFromReward(address)": "infinite",
            "getBurnWallet()": "1083",
            "includeInFee(address)": "infinite",
            "includeInReward(address)": "infinite",
            "increaseAllowance(address,uint256)": "infinite",
            "isExcludedFromFee(address)": "1221",
            "isExcludedFromReward(address)": "1222",
            "name()": "infinite",
            "numTokensSellToAddToLiquidity()": "1131",
            "owner()": "1127",
            "pancakePair()": "infinite",
            "pancakeRouter()": "infinite",
            "reflectionFromToken(uint256,bool)": "infinite",
            "renounceOwnership()": "infinite",
            "setLPThreshold(uint256)": "infinite",
            "setLiquidity(bool)": "infinite",
            "setMarketingAddress(address)": "infinite",
            "setSwapAndLiquifyEnabled(bool)": "infinite",
            "setWhaleSellThreshold(uint256)": "infinite",
            "swapAndLiquifyEnabled()": "1155",
            "symbol()": "infinite",
            "tokenFromReflection(uint256)": "infinite",
            "totalBurnFee()": "1088",
            "totalFees()": "1089",
            "totalSupply()": "311",
            "transfer(address,uint256)": "infinite",
            "transferFrom(address,address,uint256)": "infinite",
            "transferOwnership(address)": "infinite",
            "withDrawLeftoverBNB()": "infinite"
        },
        "internal": {
            "_approve(address,address,uint256)": "infinite",
            "_getCurrentSupply()": "infinite",
            "_getRate()": "infinite",
            "_getTValues(uint256)": "infinite",
            "_reflectFee(uint256,uint256)": "infinite",
            "_takeBurn(uint256)": "infinite",
            "_takeLiquidity(uint256)": "infinite",
            "_tokenTransfer(address,address,uint256)": "infinite",
            "_transfer(address,address,uint256)": "infinite",
            "addLiquidity(uint256,uint256)": "infinite",
            "swapAndLiquify(uint256)": "infinite",
            "swapTokensForEth(uint256)": "infinite",
            "transferBNBToAddress(address payable,uint256)": "infinite"
        }
    }
}